{
  "_format": "hh-sol-artifact-1",
  "contractName": "Staking",
  "sourceName": "contracts/Staking.sol",
  "abi": [
    {
      "inputs": [
        {
          "internalType": "address",
          "name": "_token",
          "type": "address"
        },
        {
          "internalType": "address",
          "name": "initialOwner",
          "type": "address"
        }
      ],
      "stateMutability": "nonpayable",
      "type": "constructor"
    },
    {
      "inputs": [],
      "name": "EnforcedPause",
      "type": "error"
    },
    {
      "inputs": [],
      "name": "ExpectedPause",
      "type": "error"
    },
    {
      "inputs": [
        {
          "internalType": "address",
          "name": "owner",
          "type": "address"
        }
      ],
      "name": "OwnableInvalidOwner",
      "type": "error"
    },
    {
      "inputs": [
        {
          "internalType": "address",
          "name": "account",
          "type": "address"
        }
      ],
      "name": "OwnableUnauthorizedAccount",
      "type": "error"
    },
    {
      "inputs": [],
      "name": "ReentrancyGuardReentrantCall",
      "type": "error"
    },
    {
      "inputs": [
        {
          "internalType": "address",
          "name": "token",
          "type": "address"
        }
      ],
      "name": "SafeERC20FailedOperation",
      "type": "error"
    },
    {
      "anonymous": false,
      "inputs": [
        {
          "indexed": true,
          "internalType": "address",
          "name": "previousOwner",
          "type": "address"
        },
        {
          "indexed": true,
          "internalType": "address",
          "name": "newOwner",
          "type": "address"
        }
      ],
      "name": "OwnershipTransferred",
      "type": "event"
    },
    {
      "anonymous": false,
      "inputs": [
        {
          "indexed": false,
          "internalType": "address",
          "name": "account",
          "type": "address"
        }
      ],
      "name": "Paused",
      "type": "event"
    },
    {
      "anonymous": false,
      "inputs": [
        {
          "indexed": true,
          "internalType": "address",
          "name": "user",
          "type": "address"
        },
        {
          "indexed": false,
          "internalType": "uint256",
          "name": "reward",
          "type": "uint256"
        }
      ],
      "name": "RewardClaimed",
      "type": "event"
    },
    {
      "anonymous": false,
      "inputs": [
        {
          "indexed": false,
          "internalType": "uint256",
          "name": "amount",
          "type": "uint256"
        }
      ],
      "name": "RewardReserveDeposited",
      "type": "event"
    },
    {
      "anonymous": false,
      "inputs": [
        {
          "indexed": false,
          "internalType": "uint256",
          "name": "amount",
          "type": "uint256"
        }
      ],
      "name": "RewardReserveWithdrawn",
      "type": "event"
    },
    {
      "anonymous": false,
      "inputs": [
        {
          "indexed": true,
          "internalType": "address",
          "name": "user",
          "type": "address"
        },
        {
          "indexed": false,
          "internalType": "uint256",
          "name": "amount",
          "type": "uint256"
        }
      ],
      "name": "Staked",
      "type": "event"
    },
    {
      "anonymous": false,
      "inputs": [
        {
          "indexed": false,
          "internalType": "address",
          "name": "account",
          "type": "address"
        }
      ],
      "name": "Unpaused",
      "type": "event"
    },
    {
      "anonymous": false,
      "inputs": [
        {
          "indexed": true,
          "internalType": "address",
          "name": "user",
          "type": "address"
        },
        {
          "indexed": false,
          "internalType": "uint256",
          "name": "amount",
          "type": "uint256"
        },
        {
          "indexed": false,
          "internalType": "uint256",
          "name": "reward",
          "type": "uint256"
        }
      ],
      "name": "Unstaked",
      "type": "event"
    },
    {
      "inputs": [],
      "name": "APY_BPS",
      "outputs": [
        {
          "internalType": "uint256",
          "name": "",
          "type": "uint256"
        }
      ],
      "stateMutability": "view",
      "type": "function"
    },
    {
      "inputs": [],
      "name": "claimRewards",
      "outputs": [],
      "stateMutability": "nonpayable",
      "type": "function"
    },
    {
      "inputs": [
        {
          "internalType": "uint256",
          "name": "amount",
          "type": "uint256"
        }
      ],
      "name": "depositRewardReserve",
      "outputs": [],
      "stateMutability": "nonpayable",
      "type": "function"
    },
    {
      "inputs": [],
      "name": "owner",
      "outputs": [
        {
          "internalType": "address",
          "name": "",
          "type": "address"
        }
      ],
      "stateMutability": "view",
      "type": "function"
    },
    {
      "inputs": [],
      "name": "pause",
      "outputs": [],
      "stateMutability": "nonpayable",
      "type": "function"
    },
    {
      "inputs": [],
      "name": "paused",
      "outputs": [
        {
          "internalType": "bool",
          "name": "",
          "type": "bool"
        }
      ],
      "stateMutability": "view",
      "type": "function"
    },
    {
      "inputs": [
        {
          "internalType": "address",
          "name": "user",
          "type": "address"
        }
      ],
      "name": "pendingRewards",
      "outputs": [
        {
          "internalType": "uint256",
          "name": "",
          "type": "uint256"
        }
      ],
      "stateMutability": "view",
      "type": "function"
    },
    {
      "inputs": [],
      "name": "renounceOwnership",
      "outputs": [],
      "stateMutability": "nonpayable",
      "type": "function"
    },
    {
      "inputs": [],
      "name": "rewardReserve",
      "outputs": [
        {
          "internalType": "uint256",
          "name": "",
          "type": "uint256"
        }
      ],
      "stateMutability": "view",
      "type": "function"
    },
    {
      "inputs": [
        {
          "internalType": "uint256",
          "name": "amount",
          "type": "uint256"
        }
      ],
      "name": "stake",
      "outputs": [],
      "stateMutability": "nonpayable",
      "type": "function"
    },
    {
      "inputs": [
        {
          "internalType": "address",
          "name": "",
          "type": "address"
        }
      ],
      "name": "stakes",
      "outputs": [
        {
          "internalType": "uint256",
          "name": "principal",
          "type": "uint256"
        },
        {
          "internalType": "uint256",
          "name": "stakedAt",
          "type": "uint256"
        },
        {
          "internalType": "uint256",
          "name": "pendingReward",
          "type": "uint256"
        }
      ],
      "stateMutability": "view",
      "type": "function"
    },
    {
      "inputs": [],
      "name": "token",
      "outputs": [
        {
          "internalType": "contract IERC20",
          "name": "",
          "type": "address"
        }
      ],
      "stateMutability": "view",
      "type": "function"
    },
    {
      "inputs": [],
      "name": "totalStaked",
      "outputs": [
        {
          "internalType": "uint256",
          "name": "",
          "type": "uint256"
        }
      ],
      "stateMutability": "view",
      "type": "function"
    },
    {
      "inputs": [
        {
          "internalType": "address",
          "name": "newOwner",
          "type": "address"
        }
      ],
      "name": "transferOwnership",
      "outputs": [],
      "stateMutability": "nonpayable",
      "type": "function"
    },
    {
      "inputs": [],
      "name": "unpause",
      "outputs": [],
      "stateMutability": "nonpayable",
      "type": "function"
    },
    {
      "inputs": [],
      "name": "unstake",
      "outputs": [],
      "stateMutability": "nonpayable",
      "type": "function"
    },
    {
      "inputs": [
        {
          "internalType": "uint256",
          "name": "amount",
          "type": "uint256"
        }
      ],
      "name": "withdrawRewardReserve",
      "outputs": [],
      "stateMutability": "nonpayable",
      "type": "function"
    }
  ],
  "bytecode": "0x60a060405234801561001057600080fd5b50604051610fa0380380610fa083398101604081905261002f91610161565b8060017f9b779b17422d0df92223018b32b4d1fa46e071723d6817e2486d003becc55f00556001600160a01b03811661008357604051631e4fbdf760e01b8152600060048201526024015b60405180910390fd5b61008c816100f5565b506001600160a01b0382166100e35760405162461bcd60e51b815260206004820152601b60248201527f5374616b696e673a207a65726f20746f6b656e20616464726573730000000000604482015260640161007a565b506001600160a01b0316608052610194565b600080546001600160a01b038381166001600160a01b0319831681178455604051919092169283917f8be0079c531659141344cd1fd0a4f28419497f9722a3daafe3b4186f6b6457e09190a35050565b80516001600160a01b038116811461015c57600080fd5b919050565b6000806040838503121561017457600080fd5b61017d83610145565b915061018b60208401610145565b90509250929050565b608051610dce6101d26000396000818161025701528181610381015281816105500152818161062b01528181610772015261088e0152610dce6000f3fe608060405234801561001057600080fd5b506004361061010b5760003560e01c8063817b1cd2116100a2578063c3825c2a11610071578063c3825c2a1461021a578063cab64bcd1461022d578063e3363d4e14610236578063f2fde38b1461023f578063fc0c546a1461025257600080fd5b8063817b1cd2146101d15780638456cb59146101da5780638da5cb5b146101e2578063a694fc3a1461020757600080fd5b80633f4ba83a116100de5780633f4ba83a146101915780635c975abb146101995780636eb5adbe146101b6578063715018a6146101c957600080fd5b806316934fc4146101105780632def66201461015e57806331d7a26214610168578063372500ab14610189575b600080fd5b61013e61011e366004610c8d565b600160208190526000918252604090912080549181015460029091015483565b604080519384526020840192909252908201526060015b60405180910390f35b610166610279565b005b61017b610176366004610c8d565b610400565b604051908152602001610155565b610166610437565b6101666105c6565b600054600160a01b900460ff166040519015158152602001610155565b6101666101c4366004610cb6565b6105d6565b6101666106a1565b61017b60025481565b6101666106b3565b6000546001600160a01b03165b6040516001600160a01b039091168152602001610155565b610166610215366004610cb6565b6106c3565b610166610228366004610cb6565b6107e7565b61017b60035481565b61017b6103e881565b61016661024d366004610c8d565b6108e5565b6101ef7f000000000000000000000000000000000000000000000000000000000000000081565b610281610920565b61028961093c565b33600090815260016020526040902080546102e55760405162461bcd60e51b815260206004820152601760248201527614dd185ada5b99ce881b9bdd1a1a5b99c81cdd185ad959604a1b60448201526064015b60405180910390fd5b805460006102f283610967565b83600201546103019190610ce5565b9050600060035482111561031757600354610319565b815b9050826002600082825461032d9190610cfe565b9250508190555080600360008282546103469190610cfe565b90915550503360008181526001602081905260408220828155908101829055600201556103a8906103778386610ce5565b6001600160a01b037f00000000000000000000000000000000000000000000000000000000000000001691906109d0565b604080518481526020810183905233917f7fc4727e062e336010f2c282598ef5f14facb3de68cf8195c2f23e1454b2b74e910160405180910390a2505050506103fe6001600080516020610d7983398151915255565b565b6001600160a01b038116600090815260016020526040812061042181610967565b81600201546104309190610ce5565b9392505050565b61043f610920565b61044761093c565b336000908152600160205260409020805461049e5760405162461bcd60e51b815260206004820152601760248201527614dd185ada5b99ce881b9bdd1a1a5b99c81cdd185ad959604a1b60448201526064016102dc565b60006104a982610967565b82600201546104b89190610ce5565b9050600081116105005760405162461bcd60e51b81526020600482015260136024820152725374616b696e673a206e6f207265776172647360681b60448201526064016102dc565b600060035482111561051457600354610516565b815b905060008360020181905550428360010181905550806003600082825461053d9190610cfe565b9091555061057790506001600160a01b037f00000000000000000000000000000000000000000000000000000000000000001633836109d0565b60405181815233907f106f923f993c2149d49b4255ff723acafa1f2d94393f561d3eda32ae348f72419060200160405180910390a25050506103fe6001600080516020610d7983398151915255565b6105ce610a0a565b6103fe610a37565b6105de610a0a565b6105e6610920565b600081116106065760405162461bcd60e51b81526004016102dc90610d11565b80600360008282546106189190610ce5565b9091555061065390506001600160a01b037f000000000000000000000000000000000000000000000000000000000000000016333084610a8c565b6040518181527feeef56731f4e2991dce0759d708eeda6e79d324f19e640a656c54abc4cff924d906020015b60405180910390a161069e6001600080516020610d7983398151915255565b50565b6106a9610a0a565b6103fe6000610ac8565b6106bb610a0a565b6103fe610b18565b6106cb610920565b6106d361093c565b600081116106f35760405162461bcd60e51b81526004016102dc90610d11565b33600090815260016020526040902080541561072b5761071281610967565b8160020160008282546107259190610ce5565b90915550505b8181600001600082825461073f9190610ce5565b90915550504260018201556002805483919060009061075f908490610ce5565b9091555061079a90506001600160a01b037f000000000000000000000000000000000000000000000000000000000000000016333085610a8c565b60405182815233907f9e71bc8eea02a63969f509818f2dafb9254532904319f9dbda79b67bd34a5f3d9060200160405180910390a25061069e6001600080516020610d7983398151915255565b6107ef610a0a565b6107f7610920565b600081116108175760405162461bcd60e51b81526004016102dc90610d11565b6003548111156108695760405162461bcd60e51b815260206004820152601860248201527f5374616b696e673a20657863656564732072657365727665000000000000000060448201526064016102dc565b806003600082825461087b9190610cfe565b909155506108b590506001600160a01b037f00000000000000000000000000000000000000000000000000000000000000001633836109d0565b6040518181527f8378c3e80c87d1d376a368873944fb0f3686ed90417dac7e3e1916f3853c7dc79060200161067f565b6108ed610a0a565b6001600160a01b03811661091757604051631e4fbdf760e01b8152600060048201526024016102dc565b61069e81610ac8565b610928610b5b565b6002600080516020610d7983398151915255565b600054600160a01b900460ff16156103fe5760405163d93c066560e01b815260040160405180910390fd5b8054600090158061097a57506001820154155b1561098757506000919050565b60008260010154426109999190610cfe565b90506109ab6301e13380612710610d3f565b835482906109bc906103e890610d3f565b6109c69190610d3f565b6104309190610d56565b6109dd8383836001610b8b565b610a0557604051635274afe760e01b81526001600160a01b03841660048201526024016102dc565b505050565b6000546001600160a01b031633146103fe5760405163118cdaa760e01b81523360048201526024016102dc565b610a3f610bf1565b6000805460ff60a01b191690557f5db9ee0a495bf2e6ff9c91a7834c1ba4fdd244a5e8aa4e537bd38aeae4b073aa335b6040516001600160a01b03909116815260200160405180910390a1565b610a9a848484846001610c1b565b610ac257604051635274afe760e01b81526001600160a01b03851660048201526024016102dc565b50505050565b600080546001600160a01b038381166001600160a01b0319831681178455604051919092169283917f8be0079c531659141344cd1fd0a4f28419497f9722a3daafe3b4186f6b6457e09190a35050565b610b2061093c565b6000805460ff60a01b1916600160a01b1790557f62e78cea01bee320cd4e420270b5ea74000d11b0c9f74754ebdbfc544b05a258610a6f3390565b600080516020610d79833981519152546002036103fe57604051633ee5aeb560e01b815260040160405180910390fd5b60405163a9059cbb60e01b60008181526001600160a01b038616600452602485905291602083604481808b5af192506001600051148316610be5578383151615610bd8573d6000823e3d81fd5b6000873b113d1516831692505b60405250949350505050565b600054600160a01b900460ff166103fe57604051638dfc202b60e01b815260040160405180910390fd5b6040516323b872dd60e01b60008181526001600160a01b038781166004528616602452604485905291602083606481808c5af192506001600051148316610c7b578383151615610c6e573d6000823e3d81fd5b6000883b113d1516831692505b60405250600060605295945050505050565b600060208284031215610c9f57600080fd5b81356001600160a01b038116811461043057600080fd5b600060208284031215610cc857600080fd5b5035919050565b634e487b7160e01b600052601160045260246000fd5b80820180821115610cf857610cf8610ccf565b92915050565b81810381811115610cf857610cf8610ccf565b60208082526014908201527314dd185ada5b99ce881e995c9bc8185b5bdd5b9d60621b604082015260600190565b8082028115828204841417610cf857610cf8610ccf565b600082610d7357634e487b7160e01b600052601260045260246000fd5b50049056fe9b779b17422d0df92223018b32b4d1fa46e071723d6817e2486d003becc55f00a26469706673582212209c64ece7e344fa48ed4a9e56d1741d8c8d885fa72c83abbead8e1e1c8fef8bc764736f6c63430008180033",
  "linkReferences": {},
  "deployedLinkReferences": {}
}