{
  "_format": "hh-sol-artifact-1",
  "contractName": "AGROVIDA",
  "sourceName": "contracts/AGROVIDA.sol",
  "abi": [
    {
      "inputs": [
        {
          "internalType": "address",
          "name": "initialOwner",
          "type": "address"
        }
      ],
      "stateMutability": "nonpayable",
      "type": "constructor"
    },
    {
      "inputs": [
        {
          "internalType": "address",
          "name": "spender",
          "type": "address"
        },
        {
          "internalType": "uint256",
          "name": "allowance",
          "type": "uint256"
        },
        {
          "internalType": "uint256",
          "name": "needed",
          "type": "uint256"
        }
      ],
      "name": "ERC20InsufficientAllowance",
      "type": "error"
    },
    {
      "inputs": [
        {
          "internalType": "address",
          "name": "sender",
          "type": "address"
        },
        {
          "internalType": "uint256",
          "name": "balance",
          "type": "uint256"
        },
        {
          "internalType": "uint256",
          "name": "needed",
          "type": "uint256"
        }
      ],
      "name": "ERC20InsufficientBalance",
      "type": "error"
    },
    {
      "inputs": [
        {
          "internalType": "address",
          "name": "approver",
          "type": "address"
        }
      ],
      "name": "ERC20InvalidApprover",
      "type": "error"
    },
    {
      "inputs": [
        {
          "internalType": "address",
          "name": "receiver",
          "type": "address"
        }
      ],
      "name": "ERC20InvalidReceiver",
      "type": "error"
    },
    {
      "inputs": [
        {
          "internalType": "address",
          "name": "sender",
          "type": "address"
        }
      ],
      "name": "ERC20InvalidSender",
      "type": "error"
    },
    {
      "inputs": [
        {
          "internalType": "address",
          "name": "spender",
          "type": "address"
        }
      ],
      "name": "ERC20InvalidSpender",
      "type": "error"
    },
    {
      "inputs": [],
      "name": "EnforcedPause",
      "type": "error"
    },
    {
      "inputs": [],
      "name": "ExpectedPause",
      "type": "error"
    },
    {
      "inputs": [
        {
          "internalType": "address",
          "name": "owner",
          "type": "address"
        }
      ],
      "name": "OwnableInvalidOwner",
      "type": "error"
    },
    {
      "inputs": [
        {
          "internalType": "address",
          "name": "account",
          "type": "address"
        }
      ],
      "name": "OwnableUnauthorizedAccount",
      "type": "error"
    },
    {
      "inputs": [],
      "name": "ReentrancyGuardReentrantCall",
      "type": "error"
    },
    {
      "anonymous": false,
      "inputs": [
        {
          "indexed": true,
          "internalType": "address",
          "name": "owner",
          "type": "address"
        },
        {
          "indexed": true,
          "internalType": "address",
          "name": "spender",
          "type": "address"
        },
        {
          "indexed": false,
          "internalType": "uint256",
          "name": "value",
          "type": "uint256"
        }
      ],
      "name": "Approval",
      "type": "event"
    },
    {
      "anonymous": false,
      "inputs": [
        {
          "indexed": true,
          "internalType": "address",
          "name": "account",
          "type": "address"
        },
        {
          "indexed": false,
          "internalType": "bool",
          "name": "exempt",
          "type": "bool"
        }
      ],
      "name": "BurnExemptSet",
      "type": "event"
    },
    {
      "anonymous": false,
      "inputs": [
        {
          "indexed": true,
          "internalType": "address",
          "name": "from",
          "type": "address"
        },
        {
          "indexed": false,
          "internalType": "uint256",
          "name": "burnAmount",
          "type": "uint256"
        }
      ],
      "name": "DeflationBurn",
      "type": "event"
    },
    {
      "anonymous": false,
      "inputs": [
        {
          "indexed": true,
          "internalType": "address",
          "name": "previousOwner",
          "type": "address"
        },
        {
          "indexed": true,
          "internalType": "address",
          "name": "newOwner",
          "type": "address"
        }
      ],
      "name": "OwnershipTransferred",
      "type": "event"
    },
    {
      "anonymous": false,
      "inputs": [
        {
          "indexed": false,
          "internalType": "address",
          "name": "account",
          "type": "address"
        }
      ],
      "name": "Paused",
      "type": "event"
    },
    {
      "anonymous": false,
      "inputs": [
        {
          "indexed": true,
          "internalType": "address",
          "name": "from",
          "type": "address"
        },
        {
          "indexed": true,
          "internalType": "address",
          "name": "to",
          "type": "address"
        },
        {
          "indexed": false,
          "internalType": "uint256",
          "name": "value",
          "type": "uint256"
        }
      ],
      "name": "Transfer",
      "type": "event"
    },
    {
      "anonymous": false,
      "inputs": [
        {
          "indexed": false,
          "internalType": "address",
          "name": "account",
          "type": "address"
        }
      ],
      "name": "Unpaused",
      "type": "event"
    },
    {
      "inputs": [],
      "name": "BURN_BPS",
      "outputs": [
        {
          "internalType": "uint16",
          "name": "",
          "type": "uint16"
        }
      ],
      "stateMutability": "view",
      "type": "function"
    },
    {
      "inputs": [],
      "name": "MAX_SUPPLY",
      "outputs": [
        {
          "internalType": "uint256",
          "name": "",
          "type": "uint256"
        }
      ],
      "stateMutability": "view",
      "type": "function"
    },
    {
      "inputs": [
        {
          "internalType": "address",
          "name": "owner",
          "type": "address"
        },
        {
          "internalType": "address",
          "name": "spender",
          "type": "address"
        }
      ],
      "name": "allowance",
      "outputs": [
        {
          "internalType": "uint256",
          "name": "",
          "type": "uint256"
        }
      ],
      "stateMutability": "view",
      "type": "function"
    },
    {
      "inputs": [
        {
          "internalType": "address",
          "name": "spender",
          "type": "address"
        },
        {
          "internalType": "uint256",
          "name": "value",
          "type": "uint256"
        }
      ],
      "name": "approve",
      "outputs": [
        {
          "internalType": "bool",
          "name": "",
          "type": "bool"
        }
      ],
      "stateMutability": "nonpayable",
      "type": "function"
    },
    {
      "inputs": [
        {
          "internalType": "address",
          "name": "account",
          "type": "address"
        }
      ],
      "name": "balanceOf",
      "outputs": [
        {
          "internalType": "uint256",
          "name": "",
          "type": "uint256"
        }
      ],
      "stateMutability": "view",
      "type": "function"
    },
    {
      "inputs": [
        {
          "internalType": "uint256",
          "name": "value",
          "type": "uint256"
        }
      ],
      "name": "burn",
      "outputs": [],
      "stateMutability": "nonpayable",
      "type": "function"
    },
    {
      "inputs": [
        {
          "internalType": "address",
          "name": "",
          "type": "address"
        }
      ],
      "name": "burnExempt",
      "outputs": [
        {
          "internalType": "bool",
          "name": "",
          "type": "bool"
        }
      ],
      "stateMutability": "view",
      "type": "function"
    },
    {
      "inputs": [
        {
          "internalType": "address",
          "name": "account",
          "type": "address"
        },
        {
          "internalType": "uint256",
          "name": "value",
          "type": "uint256"
        }
      ],
      "name": "burnFrom",
      "outputs": [],
      "stateMutability": "nonpayable",
      "type": "function"
    },
    {
      "inputs": [],
      "name": "decimals",
      "outputs": [
        {
          "internalType": "uint8",
          "name": "",
          "type": "uint8"
        }
      ],
      "stateMutability": "view",
      "type": "function"
    },
    {
      "inputs": [],
      "name": "name",
      "outputs": [
        {
          "internalType": "string",
          "name": "",
          "type": "string"
        }
      ],
      "stateMutability": "view",
      "type": "function"
    },
    {
      "inputs": [],
      "name": "owner",
      "outputs": [
        {
          "internalType": "address",
          "name": "",
          "type": "address"
        }
      ],
      "stateMutability": "view",
      "type": "function"
    },
    {
      "inputs": [],
      "name": "pause",
      "outputs": [],
      "stateMutability": "nonpayable",
      "type": "function"
    },
    {
      "inputs": [],
      "name": "paused",
      "outputs": [
        {
          "internalType": "bool",
          "name": "",
          "type": "bool"
        }
      ],
      "stateMutability": "view",
      "type": "function"
    },
    {
      "inputs": [],
      "name": "renounceOwnership",
      "outputs": [],
      "stateMutability": "nonpayable",
      "type": "function"
    },
    {
      "inputs": [
        {
          "internalType": "address",
          "name": "account",
          "type": "address"
        },
        {
          "internalType": "bool",
          "name": "exempt",
          "type": "bool"
        }
      ],
      "name": "setBurnExempt",
      "outputs": [],
      "stateMutability": "nonpayable",
      "type": "function"
    },
    {
      "inputs": [],
      "name": "symbol",
      "outputs": [
        {
          "internalType": "string",
          "name": "",
          "type": "string"
        }
      ],
      "stateMutability": "view",
      "type": "function"
    },
    {
      "inputs": [],
      "name": "totalBurned",
      "outputs": [
        {
          "internalType": "uint256",
          "name": "",
          "type": "uint256"
        }
      ],
      "stateMutability": "view",
      "type": "function"
    },
    {
      "inputs": [],
      "name": "totalSupply",
      "outputs": [
        {
          "internalType": "uint256",
          "name": "",
          "type": "uint256"
        }
      ],
      "stateMutability": "view",
      "type": "function"
    },
    {
      "inputs": [
        {
          "internalType": "address",
          "name": "to",
          "type": "address"
        },
        {
          "internalType": "uint256",
          "name": "value",
          "type": "uint256"
        }
      ],
      "name": "transfer",
      "outputs": [
        {
          "internalType": "bool",
          "name": "",
          "type": "bool"
        }
      ],
      "stateMutability": "nonpayable",
      "type": "function"
    },
    {
      "inputs": [
        {
          "internalType": "address",
          "name": "from",
          "type": "address"
        },
        {
          "internalType": "address",
          "name": "to",
          "type": "address"
        },
        {
          "internalType": "uint256",
          "name": "value",
          "type": "uint256"
        }
      ],
      "name": "transferFrom",
      "outputs": [
        {
          "internalType": "bool",
          "name": "",
          "type": "bool"
        }
      ],
      "stateMutability": "nonpayable",
      "type": "function"
    },
    {
      "inputs": [
        {
          "internalType": "address",
          "name": "newOwner",
          "type": "address"
        }
      ],
      "name": "transferOwnership",
      "outputs": [],
      "stateMutability": "nonpayable",
      "type": "function"
    },
    {
      "inputs": [],
      "name": "unpause",
      "outputs": [],
      "stateMutability": "nonpayable",
      "type": "function"
    }
  ],
  "bytecode": "0x60806040523480156200001157600080fd5b506040516200141d3803806200141d833981016040819052620000349162000470565b80604051806040016040528060088152602001674147524f5649444160c01b815250604051806040016040528060048152602001634147524f60e01b815250816003908162000084919062000548565b50600462000093828262000548565b5050506001600160a01b038116620000c657604051631e4fbdf760e01b8152600060048201526024015b60405180910390fd5b620000d18162000138565b5060017f9b779b17422d0df92223018b32b4d1fa46e071723d6817e2486d003becc55f00556001600160a01b0381166000908152600660205260409020805460ff1916600117905562000131816b033b2e3c9fd0803ce800000062000192565b5062000699565b600580546001600160a01b03838116610100818102610100600160a81b031985161790945560405193909204169182907f8be0079c531659141344cd1fd0a4f28419497f9722a3daafe3b4186f6b6457e090600090a35050565b6001600160a01b038216620001be5760405163ec442f0560e01b815260006004820152602401620000bd565b620001cc60008383620001d0565b5050565b6001600160a01b03831615801590620001f157506001600160a01b03821615155b80156200021757506001600160a01b03831660009081526006602052604090205460ff16155b80156200023d57506001600160a01b03821660009081526006602052604090205460ff16155b80156200024a5750600081115b15620002ed5760006127106200026260c8846200062a565b6200026e91906200064a565b90508015620002eb576200028584600083620002ff565b80600760008282546200029991906200066d565b90915550506040518181526001600160a01b038516907fc45c60a0af3566b3409bafb480a4087cf30d5e2ab43d29a6e3c94877803cc7d39060200160405180910390a2620002e8818362000683565b91505b505b620002fa838383620002ff565b505050565b6200030962000316565b620002fa8383836200033d565b60055460ff16156200033b5760405163d93c066560e01b815260040160405180910390fd5b565b6001600160a01b0383166200036c5780600260008282546200036091906200066d565b90915550620003e09050565b6001600160a01b03831660009081526020819052604090205481811015620003c15760405163391434e360e21b81526001600160a01b03851660048201526024810182905260448101839052606401620000bd565b6001600160a01b03841660009081526020819052604090209082900390555b6001600160a01b038216620003fe576002805482900390556200041d565b6001600160a01b03821660009081526020819052604090208054820190555b816001600160a01b0316836001600160a01b03167fddf252ad1be2c89b69c2b068fc378daa952ba7f163c4a11628f55a4df523b3ef836040516200046391815260200190565b60405180910390a3505050565b6000602082840312156200048357600080fd5b81516001600160a01b03811681146200049b57600080fd5b9392505050565b634e487b7160e01b600052604160045260246000fd5b600181811c90821680620004cd57607f821691505b602082108103620004ee57634e487b7160e01b600052602260045260246000fd5b50919050565b601f821115620002fa576000816000526020600020601f850160051c810160208610156200051f5750805b601f850160051c820191505b8181101562000540578281556001016200052b565b505050505050565b81516001600160401b03811115620005645762000564620004a2565b6200057c81620005758454620004b8565b84620004f4565b602080601f831160018114620005b457600084156200059b5750858301515b600019600386901b1c1916600185901b17855562000540565b600085815260208120601f198616915b82811015620005e557888601518255948401946001909101908401620005c4565b5085821015620006045787850151600019600388901b60f8161c191681555b5050505050600190811b01905550565b634e487b7160e01b600052601160045260246000fd5b808202811582820484141762000644576200064462000614565b92915050565b6000826200066857634e487b7160e01b600052601260045260246000fd5b500490565b8082018082111562000644576200064462000614565b8181038181111562000644576200064462000614565b610d7480620006a96000396000f3fe608060405234801561001057600080fd5b50600436106101425760003560e01c8063715018a6116100b8578063a37a9fc01161007c578063a37a9fc014610297578063a6fd2848146102b2578063a9059cbb146102c5578063d89135cd146102d8578063dd62ed3e146102e1578063f2fde38b1461031a57600080fd5b8063715018a61461024357806379cc67901461024b5780638456cb591461025e5780638da5cb5b1461026657806395d89b411461028f57600080fd5b8063313ce5671161010a578063313ce567146101d057806332cb6b0c146101df5780633f4ba83a146101f257806342966c68146101fc5780635c975abb1461020f57806370a082311461021a57600080fd5b806306fdde0314610147578063095ea7b31461016557806318160ddd1461018857806323b872dd1461019a578063256619e1146101ad575b600080fd5b61014f61032d565b60405161015c9190610b14565b60405180910390f35b610178610173366004610b7f565b6103bf565b604051901515815260200161015c565b6002545b60405190815260200161015c565b6101786101a8366004610ba9565b6103d9565b6101786101bb366004610be5565b60066020526000908152604090205460ff1681565b6040516012815260200161015c565b61018c6b033b2e3c9fd0803ce800000081565b6101fa6103fd565b005b6101fa61020a366004610c07565b61040f565b60055460ff16610178565b61018c610228366004610be5565b6001600160a01b031660009081526020819052604090205490565b6101fa61041c565b6101fa610259366004610b7f565b61042e565b6101fa610447565b60055461010090046001600160a01b03166040516001600160a01b03909116815260200161015c565b61014f610457565b61029f60c881565b60405161ffff909116815260200161015c565b6101fa6102c0366004610c20565b610466565b6101786102d3366004610b7f565b61051d565b61018c60075481565b61018c6102ef366004610c5c565b6001600160a01b03918216600090815260016020908152604080832093909416825291909152205490565b6101fa610328366004610be5565b61052b565b60606003805461033c90610c8f565b80601f016020809104026020016040519081016040528092919081815260200182805461036890610c8f565b80156103b55780601f1061038a576101008083540402835291602001916103b5565b820191906000526020600020905b81548152906001019060200180831161039857829003601f168201915b5050505050905090565b6000336103cd818585610566565b60019150505b92915050565b6000336103e7858285610578565b6103f28585856105f7565b506001949350505050565b610405610656565b61040d610689565b565b61041933826106db565b50565b610424610656565b61040d6000610711565b610439823383610578565b61044382826106db565b5050565b61044f610656565b61040d61076b565b60606004805461033c90610c8f565b61046e610656565b6001600160a01b0382166104be5760405162461bcd60e51b81526020600482015260126024820152714147524f3a207a65726f206164647265737360701b60448201526064015b60405180910390fd5b6001600160a01b038216600081815260066020908152604091829020805460ff191685151590811790915591519182527fee0c8a6b38e453d6845df2dc367fe88cac37c6e4bbe2f58f08cd3b58b6a8e710910160405180910390a25050565b6000336103cd8185856105f7565b610533610656565b6001600160a01b03811661055d57604051631e4fbdf760e01b8152600060048201526024016104b5565b61041981610711565b61057383838360016107a8565b505050565b6001600160a01b038381166000908152600160209081526040808320938616835292905220546000198110156105f157818110156105e257604051637dc7a0d960e11b81526001600160a01b038416600482015260248101829052604481018390526064016104b5565b6105f1848484840360006107a8565b50505050565b6001600160a01b03831661062157604051634b637e8f60e11b8152600060048201526024016104b5565b6001600160a01b03821661064b5760405163ec442f0560e01b8152600060048201526024016104b5565b61057383838361087d565b6005546001600160a01b0361010090910416331461040d5760405163118cdaa760e01b81523360048201526024016104b5565b610691610995565b6005805460ff191690557f5db9ee0a495bf2e6ff9c91a7834c1ba4fdd244a5e8aa4e537bd38aeae4b073aa335b6040516001600160a01b03909116815260200160405180910390a1565b6001600160a01b03821661070557604051634b637e8f60e11b8152600060048201526024016104b5565b6104438260008361087d565b600580546001600160a01b03838116610100818102610100600160a81b031985161790945560405193909204169182907f8be0079c531659141344cd1fd0a4f28419497f9722a3daafe3b4186f6b6457e090600090a35050565b6107736109b8565b6005805460ff191660011790557f62e78cea01bee320cd4e420270b5ea74000d11b0c9f74754ebdbfc544b05a2586106be3390565b6001600160a01b0384166107d25760405163e602df0560e01b8152600060048201526024016104b5565b6001600160a01b0383166107fc57604051634a1406b160e11b8152600060048201526024016104b5565b6001600160a01b03808516600090815260016020908152604080832093871683529290522082905580156105f157826001600160a01b0316846001600160a01b03167f8c5be1e5ebec7d5bd14f71427d1e84f3dd0314c0f7b2291e5b200ac8c7c3b9258460405161086f91815260200190565b60405180910390a350505050565b6001600160a01b0383161580159061089d57506001600160a01b03821615155b80156108c257506001600160a01b03831660009081526006602052604090205460ff16155b80156108e757506001600160a01b03821660009081526006602052604090205460ff16155b80156108f35750600081115b1561098a57600061271061090860c884610cdf565b6109129190610cf6565b9050801561098857610926846000836109dc565b80600760008282546109389190610d18565b90915550506040518181526001600160a01b038516907fc45c60a0af3566b3409bafb480a4087cf30d5e2ab43d29a6e3c94877803cc7d39060200160405180910390a26109858183610d2b565b91505b505b6105738383836109dc565b60055460ff1661040d57604051638dfc202b60e01b815260040160405180910390fd5b60055460ff161561040d5760405163d93c066560e01b815260040160405180910390fd5b6109e46109b8565b6105738383836001600160a01b038316610a15578060026000828254610a0a9190610d18565b90915550610a879050565b6001600160a01b03831660009081526020819052604090205481811015610a685760405163391434e360e21b81526001600160a01b038516600482015260248101829052604481018390526064016104b5565b6001600160a01b03841660009081526020819052604090209082900390555b6001600160a01b038216610aa357600280548290039055610ac2565b6001600160a01b03821660009081526020819052604090208054820190555b816001600160a01b0316836001600160a01b03167fddf252ad1be2c89b69c2b068fc378daa952ba7f163c4a11628f55a4df523b3ef83604051610b0791815260200190565b60405180910390a3505050565b60006020808352835180602085015260005b81811015610b4257858101830151858201604001528201610b26565b506000604082860101526040601f19601f8301168501019250505092915050565b80356001600160a01b0381168114610b7a57600080fd5b919050565b60008060408385031215610b9257600080fd5b610b9b83610b63565b946020939093013593505050565b600080600060608486031215610bbe57600080fd5b610bc784610b63565b9250610bd560208501610b63565b9150604084013590509250925092565b600060208284031215610bf757600080fd5b610c0082610b63565b9392505050565b600060208284031215610c1957600080fd5b5035919050565b60008060408385031215610c3357600080fd5b610c3c83610b63565b915060208301358015158114610c5157600080fd5b809150509250929050565b60008060408385031215610c6f57600080fd5b610c7883610b63565b9150610c8660208401610b63565b90509250929050565b600181811c90821680610ca357607f821691505b602082108103610cc357634e487b7160e01b600052602260045260246000fd5b50919050565b634e487b7160e01b600052601160045260246000fd5b80820281158282048414176103d3576103d3610cc9565b600082610d1357634e487b7160e01b600052601260045260246000fd5b500490565b808201808211156103d3576103d3610cc9565b818103818111156103d3576103d3610cc956fea2646970667358221220dbafa9a7e5a6c26799ca34d8c73cdf316d17ee46bb63f2010ac39aa7973f2f2364736f6c63430008180033",
  "linkReferences": {},
  "deployedLinkReferences": {}
}