{"contracts/Staking.sol":{"Staking":{"abi":[{"inputs":[{"internalType":"address","name":"_token","type":"address"},{"internalType":"address","name":"initialOwner","type":"address"}],"stateMutability":"nonpayable","type":"constructor"},{"inputs":[],"name":"EnforcedPause","type":"error"},{"inputs":[],"name":"ExpectedPause","type":"error"},{"inputs":[{"internalType":"address","name":"owner","type":"address"}],"name":"OwnableInvalidOwner","type":"error"},{"inputs":[{"internalType":"address","name":"account","type":"address"}],"name":"OwnableUnauthorizedAccount","type":"error"},{"inputs":[],"name":"ReentrancyGuardReentrantCall","type":"error"},{"inputs":[{"internalType":"address","name":"token","type":"address"}],"name":"SafeERC20FailedOperation","type":"error"},{"anonymous":false,"inputs":[{"indexed":true,"internalType":"address","name":"previousOwner","type":"address"},{"indexed":true,"internalType":"address","name":"newOwner","type":"address"}],"name":"OwnershipTransferred","type":"event"},{"anonymous":false,"inputs":[{"indexed":false,"internalType":"address","name":"account","type":"address"}],"name":"Paused","type":"event"},{"anonymous":false,"inputs":[{"indexed":true,"internalType":"address","name":"user","type":"address"},{"indexed":false,"internalType":"uint256","name":"reward","type":"uint256"}],"name":"RewardClaimed","type":"event"},{"anonymous":false,"inputs":[{"indexed":false,"internalType":"uint256","name":"amount","type":"uint256"}],"name":"RewardReserveDeposited","type":"event"},{"anonymous":false,"inputs":[{"indexed":false,"internalType":"uint256","name":"amount","type":"uint256"}],"name":"RewardReserveWithdrawn","type":"event"},{"anonymous":false,"inputs":[{"indexed":true,"internalType":"address","name":"user","type":"address"},{"indexed":false,"internalType":"uint256","name":"amount","type":"uint256"}],"name":"Staked","type":"event"},{"anonymous":false,"inputs":[{"indexed":false,"internalType":"address","name":"account","type":"address"}],"name":"Unpaused","type":"event"},{"anonymous":false,"inputs":[{"indexed":true,"internalType":"address","name":"user","type":"address"},{"indexed":false,"internalType":"uint256","name":"amount","type":"uint256"},{"indexed":false,"internalType":"uint256","name":"reward","type":"uint256"}],"name":"Unstaked","type":"event"},{"inputs":[],"name":"APY_BPS","outputs":[{"internalType":"uint256","name":"","type":"uint256"}],"stateMutability":"view","type":"function"},{"inputs":[],"name":"claimRewards","outputs":[],"stateMutability":"nonpayable","type":"function"},{"inputs":[{"internalType":"uint256","name":"amount","type":"uint256"}],"name":"depositRewardReserve","outputs":[],"stateMutability":"nonpayable","type":"function"},{"inputs":[],"name":"owner","outputs":[{"internalType":"address","name":"","type":"address"}],"stateMutability":"view","type":"function"},{"inputs":[],"name":"pause","outputs":[],"stateMutability":"nonpayable","type":"function"},{"inputs":[],"name":"paused","outputs":[{"internalType":"bool","name":"","type":"bool"}],"stateMutability":"view","type":"function"},{"inputs":[{"internalType":"address","name":"user","type":"address"}],"name":"pendingRewards","outputs":[{"internalType":"uint256","name":"","type":"uint256"}],"stateMutability":"view","type":"function"},{"inputs":[],"name":"renounceOwnership","outputs":[],"stateMutability":"nonpayable","type":"function"},{"inputs":[],"name":"rewardReserve","outputs":[{"internalType":"uint256","name":"","type":"uint256"}],"stateMutability":"view","type":"function"},{"inputs":[{"internalType":"uint256","name":"amount","type":"uint256"}],"name":"stake","outputs":[],"stateMutability":"nonpayable","type":"function"},{"inputs":[{"internalType":"address","name":"","type":"address"}],"name":"stakes","outputs":[{"internalType":"uint256","name":"principal","type":"uint256"},{"internalType":"uint256","name":"stakedAt","type":"uint256"},{"internalType":"uint256","name":"pendingReward","type":"uint256"}],"stateMutability":"view","type":"function"},{"inputs":[],"name":"token","outputs":[{"internalType":"contract IERC20","name":"","type":"address"}],"stateMutability":"view","type":"function"},{"inputs":[],"name":"totalStaked","outputs":[{"internalType":"uint256","name":"","type":"uint256"}],"stateMutability":"view","type":"function"},{"inputs":[{"internalType":"address","name":"newOwner","type":"address"}],"name":"transferOwnership","outputs":[],"stateMutability":"nonpayable","type":"function"},{"inputs":[],"name":"unpause","outputs":[],"stateMutability":"nonpayable","type":"function"},{"inputs":[],"name":"unstake","outputs":[],"stateMutability":"nonpayable","type":"function"},{"inputs":[{"internalType":"uint256","name":"amount","type":"uint256"}],"name":"withdrawRewardReserve","outputs":[],"stateMutability":"nonpayable","type":"function"}],"evm":{"bytecode":{"linkReferences":{},"object":"60a060405234801561001057600080fd5b50604051610fa0380380610fa083398101604081905261002f91610161565b8060017f9b779b17422d0df92223018b32b4d1fa46e071723d6817e2486d003becc55f00556001600160a01b03811661008357604051631e4fbdf760e01b8152600060048201526024015b60405180910390fd5b61008c816100f5565b506001600160a01b0382166100e35760405162461bcd60e51b815260206004820152601b60248201527f5374616b696e673a207a65726f20746f6b656e20616464726573730000000000604482015260640161007a565b506001600160a01b0316608052610194565b600080546001600160a01b038381166001600160a01b0319831681178455604051919092169283917f8be0079c531659141344cd1fd0a4f28419497f9722a3daafe3b4186f6b6457e09190a35050565b80516001600160a01b038116811461015c57600080fd5b919050565b6000806040838503121561017457600080fd5b61017d83610145565b915061018b60208401610145565b90509250929050565b608051610dce6101d26000396000818161025701528181610381015281816105500152818161062b01528181610772015261088e0152610dce6000f3fe608060405234801561001057600080fd5b506004361061010b5760003560e01c8063817b1cd2116100a2578063c3825c2a11610071578063c3825c2a1461021a578063cab64bcd1461022d578063e3363d4e14610236578063f2fde38b1461023f578063fc0c546a1461025257600080fd5b8063817b1cd2146101d15780638456cb59146101da5780638da5cb5b146101e2578063a694fc3a1461020757600080fd5b80633f4ba83a116100de5780633f4ba83a146101915780635c975abb146101995780636eb5adbe146101b6578063715018a6146101c957600080fd5b806316934fc4146101105780632def66201461015e57806331d7a26214610168578063372500ab14610189575b600080fd5b61013e61011e366004610c8d565b600160208190526000918252604090912080549181015460029091015483565b604080519384526020840192909252908201526060015b60405180910390f35b610166610279565b005b61017b610176366004610c8d565b610400565b604051908152602001610155565b610166610437565b6101666105c6565b600054600160a01b900460ff166040519015158152602001610155565b6101666101c4366004610cb6565b6105d6565b6101666106a1565b61017b60025481565b6101666106b3565b6000546001600160a01b03165b6040516001600160a01b039091168152602001610155565b610166610215366004610cb6565b6106c3565b610166610228366004610cb6565b6107e7565b61017b60035481565b61017b6103e881565b61016661024d366004610c8d565b6108e5565b6101ef7f000000000000000000000000000000000000000000000000000000000000000081565b610281610920565b61028961093c565b33600090815260016020526040902080546102e55760405162461bcd60e51b815260206004820152601760248201527614dd185ada5b99ce881b9bdd1a1a5b99c81cdd185ad959604a1b60448201526064015b60405180910390fd5b805460006102f283610967565b83600201546103019190610ce5565b9050600060035482111561031757600354610319565b815b9050826002600082825461032d9190610cfe565b9250508190555080600360008282546103469190610cfe565b90915550503360008181526001602081905260408220828155908101829055600201556103a8906103778386610ce5565b6001600160a01b037f00000000000000000000000000000000000000000000000000000000000000001691906109d0565b604080518481526020810183905233917f7fc4727e062e336010f2c282598ef5f14facb3de68cf8195c2f23e1454b2b74e910160405180910390a2505050506103fe6001600080516020610d7983398151915255565b565b6001600160a01b038116600090815260016020526040812061042181610967565b81600201546104309190610ce5565b9392505050565b61043f610920565b61044761093c565b336000908152600160205260409020805461049e5760405162461bcd60e51b815260206004820152601760248201527614dd185ada5b99ce881b9bdd1a1a5b99c81cdd185ad959604a1b60448201526064016102dc565b60006104a982610967565b82600201546104b89190610ce5565b9050600081116105005760405162461bcd60e51b81526020600482015260136024820152725374616b696e673a206e6f207265776172647360681b60448201526064016102dc565b600060035482111561051457600354610516565b815b905060008360020181905550428360010181905550806003600082825461053d9190610cfe565b9091555061057790506001600160a01b037f00000000000000000000000000000000000000000000000000000000000000001633836109d0565b60405181815233907f106f923f993c2149d49b4255ff723acafa1f2d94393f561d3eda32ae348f72419060200160405180910390a25050506103fe6001600080516020610d7983398151915255565b6105ce610a0a565b6103fe610a37565b6105de610a0a565b6105e6610920565b600081116106065760405162461bcd60e51b81526004016102dc90610d11565b80600360008282546106189190610ce5565b9091555061065390506001600160a01b037f000000000000000000000000000000000000000000000000000000000000000016333084610a8c565b6040518181527feeef56731f4e2991dce0759d708eeda6e79d324f19e640a656c54abc4cff924d906020015b60405180910390a161069e6001600080516020610d7983398151915255565b50565b6106a9610a0a565b6103fe6000610ac8565b6106bb610a0a565b6103fe610b18565b6106cb610920565b6106d361093c565b600081116106f35760405162461bcd60e51b81526004016102dc90610d11565b33600090815260016020526040902080541561072b5761071281610967565b8160020160008282546107259190610ce5565b90915550505b8181600001600082825461073f9190610ce5565b90915550504260018201556002805483919060009061075f908490610ce5565b9091555061079a90506001600160a01b037f000000000000000000000000000000000000000000000000000000000000000016333085610a8c565b60405182815233907f9e71bc8eea02a63969f509818f2dafb9254532904319f9dbda79b67bd34a5f3d9060200160405180910390a25061069e6001600080516020610d7983398151915255565b6107ef610a0a565b6107f7610920565b600081116108175760405162461bcd60e51b81526004016102dc90610d11565b6003548111156108695760405162461bcd60e51b815260206004820152601860248201527f5374616b696e673a20657863656564732072657365727665000000000000000060448201526064016102dc565b806003600082825461087b9190610cfe565b909155506108b590506001600160a01b037f00000000000000000000000000000000000000000000000000000000000000001633836109d0565b6040518181527f8378c3e80c87d1d376a368873944fb0f3686ed90417dac7e3e1916f3853c7dc79060200161067f565b6108ed610a0a565b6001600160a01b03811661091757604051631e4fbdf760e01b8152600060048201526024016102dc565b61069e81610ac8565b610928610b5b565b6002600080516020610d7983398151915255565b600054600160a01b900460ff16156103fe5760405163d93c066560e01b815260040160405180910390fd5b8054600090158061097a57506001820154155b1561098757506000919050565b60008260010154426109999190610cfe565b90506109ab6301e13380612710610d3f565b835482906109bc906103e890610d3f565b6109c69190610d3f565b6104309190610d56565b6109dd8383836001610b8b565b610a0557604051635274afe760e01b81526001600160a01b03841660048201526024016102dc565b505050565b6000546001600160a01b031633146103fe5760405163118cdaa760e01b81523360048201526024016102dc565b610a3f610bf1565b6000805460ff60a01b191690557f5db9ee0a495bf2e6ff9c91a7834c1ba4fdd244a5e8aa4e537bd38aeae4b073aa335b6040516001600160a01b03909116815260200160405180910390a1565b610a9a848484846001610c1b565b610ac257604051635274afe760e01b81526001600160a01b03851660048201526024016102dc565b50505050565b600080546001600160a01b038381166001600160a01b0319831681178455604051919092169283917f8be0079c531659141344cd1fd0a4f28419497f9722a3daafe3b4186f6b6457e09190a35050565b610b2061093c565b6000805460ff60a01b1916600160a01b1790557f62e78cea01bee320cd4e420270b5ea74000d11b0c9f74754ebdbfc544b05a258610a6f3390565b600080516020610d79833981519152546002036103fe57604051633ee5aeb560e01b815260040160405180910390fd5b60405163a9059cbb60e01b60008181526001600160a01b038616600452602485905291602083604481808b5af192506001600051148316610be5578383151615610bd8573d6000823e3d81fd5b6000873b113d1516831692505b60405250949350505050565b600054600160a01b900460ff166103fe57604051638dfc202b60e01b815260040160405180910390fd5b6040516323b872dd60e01b60008181526001600160a01b038781166004528616602452604485905291602083606481808c5af192506001600051148316610c7b578383151615610c6e573d6000823e3d81fd5b6000883b113d1516831692505b60405250600060605295945050505050565b600060208284031215610c9f57600080fd5b81356001600160a01b038116811461043057600080fd5b600060208284031215610cc857600080fd5b5035919050565b634e487b7160e01b600052601160045260246000fd5b80820180821115610cf857610cf8610ccf565b92915050565b81810381811115610cf857610cf8610ccf565b60208082526014908201527314dd185ada5b99ce881e995c9bc8185b5bdd5b9d60621b604082015260600190565b8082028115828204841417610cf857610cf8610ccf565b600082610d7357634e487b7160e01b600052601260045260246000fd5b50049056fe9b779b17422d0df92223018b32b4d1fa46e071723d6817e2486d003becc55f00a26469706673582212209c64ece7e344fa48ed4a9e56d1741d8c8d885fa72c83abbead8e1e1c8fef8bc764736f6c63430008180033","opcodes":"PUSH1 0xA0 PUSH1 0x40 MSTORE CALLVALUE DUP1 ISZERO PUSH2 0x10 JUMPI PUSH1 0x0 DUP1 REVERT JUMPDEST POP PUSH1 0x40 MLOAD PUSH2 0xFA0 CODESIZE SUB DUP1 PUSH2 0xFA0 DUP4 CODECOPY DUP2 ADD PUSH1 0x40 DUP2 SWAP1 MSTORE PUSH2 0x2F SWAP2 PUSH2 0x161 JUMP JUMPDEST DUP1 PUSH1 0x1 PUSH32 0x9B779B17422D0DF92223018B32B4D1FA46E071723D6817E2486D003BECC55F00 SSTORE PUSH1 0x1 PUSH1 0x1 PUSH1 0xA0 SHL SUB DUP2 AND PUSH2 0x83 JUMPI PUSH1 0x40 MLOAD PUSH4 0x1E4FBDF7 PUSH1 0xE0 SHL DUP2 MSTORE PUSH1 0x0 PUSH1 0x4 DUP3 ADD MSTORE PUSH1 0x24 ADD JUMPDEST PUSH1 0x40 MLOAD DUP1 SWAP2 SUB SWAP1 REVERT JUMPDEST PUSH2 0x8C DUP2 PUSH2 0xF5 JUMP JUMPDEST POP PUSH1 0x1 PUSH1 0x1 PUSH1 0xA0 SHL SUB DUP3 AND PUSH2 0xE3 JUMPI PUSH1 0x40 MLOAD PUSH3 0x461BCD PUSH1 0xE5 SHL DUP2 MSTORE PUSH1 0x20 PUSH1 0x4 DUP3 ADD MSTORE PUSH1 0x1B PUSH1 0x24 DUP3 ADD MSTORE PUSH32 0x5374616B696E673A207A65726F20746F6B656E20616464726573730000000000 PUSH1 0x44 DUP3 ADD MSTORE PUSH1 0x64 ADD PUSH2 0x7A JUMP JUMPDEST POP PUSH1 0x1 PUSH1 0x1 PUSH1 0xA0 SHL SUB AND PUSH1 0x80 MSTORE PUSH2 0x194 JUMP JUMPDEST PUSH1 0x0 DUP1 SLOAD PUSH1 0x1 PUSH1 0x1 PUSH1 0xA0 SHL SUB DUP4 DUP2 AND PUSH1 0x1 PUSH1 0x1 PUSH1 0xA0 SHL SUB NOT DUP4 AND DUP2 OR DUP5 SSTORE PUSH1 0x40 MLOAD SWAP2 SWAP1 SWAP3 AND SWAP3 DUP4 SWAP2 PUSH32 0x8BE0079C531659141344CD1FD0A4F28419497F9722A3DAAFE3B4186F6B6457E0 SWAP2 SWAP1 LOG3 POP POP JUMP JUMPDEST DUP1 MLOAD PUSH1 0x1 PUSH1 0x1 PUSH1 0xA0 SHL SUB DUP2 AND DUP2 EQ PUSH2 0x15C JUMPI PUSH1 0x0 DUP1 REVERT JUMPDEST SWAP2 SWAP1 POP JUMP JUMPDEST PUSH1 0x0 DUP1 PUSH1 0x40 DUP4 DUP6 SUB SLT ISZERO PUSH2 0x174 JUMPI PUSH1 0x0 DUP1 REVERT JUMPDEST PUSH2 0x17D DUP4 PUSH2 0x145 JUMP JUMPDEST SWAP2 POP PUSH2 0x18B PUSH1 0x20 DUP5 ADD PUSH2 0x145 JUMP JUMPDEST SWAP1 POP SWAP3 POP SWAP3 SWAP1 POP JUMP JUMPDEST PUSH1 0x80 MLOAD PUSH2 0xDCE PUSH2 0x1D2 PUSH1 0x0 CODECOPY PUSH1 0x0 DUP2 DUP2 PUSH2 0x257 ADD MSTORE DUP2 DUP2 PUSH2 0x381 ADD MSTORE DUP2 DUP2 PUSH2 0x550 ADD MSTORE DUP2 DUP2 PUSH2 0x62B ADD MSTORE DUP2 DUP2 PUSH2 0x772 ADD MSTORE PUSH2 0x88E ADD MSTORE PUSH2 0xDCE PUSH1 0x0 RETURN INVALID PUSH1 0x80 PUSH1 0x40 MSTORE CALLVALUE DUP1 ISZERO PUSH2 0x10 JUMPI PUSH1 0x0 DUP1 REVERT JUMPDEST POP PUSH1 0x4 CALLDATASIZE LT PUSH2 0x10B JUMPI PUSH1 0x0 CALLDATALOAD PUSH1 0xE0 SHR DUP1 PUSH4 0x817B1CD2 GT PUSH2 0xA2 JUMPI DUP1 PUSH4 0xC3825C2A GT PUSH2 0x71 JUMPI DUP1 PUSH4 0xC3825C2A EQ PUSH2 0x21A JUMPI DUP1 PUSH4 0xCAB64BCD EQ PUSH2 0x22D JUMPI DUP1 PUSH4 0xE3363D4E EQ PUSH2 0x236 JUMPI DUP1 PUSH4 0xF2FDE38B EQ PUSH2 0x23F JUMPI DUP1 PUSH4 0xFC0C546A EQ PUSH2 0x252 JUMPI PUSH1 0x0 DUP1 REVERT JUMPDEST DUP1 PUSH4 0x817B1CD2 EQ PUSH2 0x1D1 JUMPI DUP1 PUSH4 0x8456CB59 EQ PUSH2 0x1DA JUMPI DUP1 PUSH4 0x8DA5CB5B EQ PUSH2 0x1E2 JUMPI DUP1 PUSH4 0xA694FC3A EQ PUSH2 0x207 JUMPI PUSH1 0x0 DUP1 REVERT JUMPDEST DUP1 PUSH4 0x3F4BA83A GT PUSH2 0xDE JUMPI DUP1 PUSH4 0x3F4BA83A EQ PUSH2 0x191 JUMPI DUP1 PUSH4 0x5C975ABB EQ PUSH2 0x199 JUMPI DUP1 PUSH4 0x6EB5ADBE EQ PUSH2 0x1B6 JUMPI DUP1 PUSH4 0x715018A6 EQ PUSH2 0x1C9 JUMPI PUSH1 0x0 DUP1 REVERT JUMPDEST DUP1 PUSH4 0x16934FC4 EQ PUSH2 0x110 JUMPI DUP1 PUSH4 0x2DEF6620 EQ PUSH2 0x15E JUMPI DUP1 PUSH4 0x31D7A262 EQ PUSH2 0x168 JUMPI DUP1 PUSH4 0x372500AB EQ PUSH2 0x189 JUMPI JUMPDEST PUSH1 0x0 DUP1 REVERT JUMPDEST PUSH2 0x13E PUSH2 0x11E CALLDATASIZE PUSH1 0x4 PUSH2 0xC8D JUMP JUMPDEST PUSH1 0x1 PUSH1 0x20 DUP2 SWAP1 MSTORE PUSH1 0x0 SWAP2 DUP3 MSTORE PUSH1 0x40 SWAP1 SWAP2 KECCAK256 DUP1 SLOAD SWAP2 DUP2 ADD SLOAD PUSH1 0x2 SWAP1 SWAP2 ADD SLOAD DUP4 JUMP JUMPDEST PUSH1 0x40 DUP1 MLOAD SWAP4 DUP5 MSTORE PUSH1 0x20 DUP5 ADD SWAP3 SWAP1 SWAP3 MSTORE SWAP1 DUP3 ADD MSTORE PUSH1 0x60 ADD JUMPDEST PUSH1 0x40 MLOAD DUP1 SWAP2 SUB SWAP1 RETURN JUMPDEST PUSH2 0x166 PUSH2 0x279 JUMP JUMPDEST STOP JUMPDEST PUSH2 0x17B PUSH2 0x176 CALLDATASIZE PUSH1 0x4 PUSH2 0xC8D JUMP JUMPDEST PUSH2 0x400 JUMP JUMPDEST PUSH1 0x40 MLOAD SWAP1 DUP2 MSTORE PUSH1 0x20 ADD PUSH2 0x155 JUMP JUMPDEST PUSH2 0x166 PUSH2 0x437 JUMP JUMPDEST PUSH2 0x166 PUSH2 0x5C6 JUMP JUMPDEST PUSH1 0x0 SLOAD PUSH1 0x1 PUSH1 0xA0 SHL SWAP1 DIV PUSH1 0xFF AND PUSH1 0x40 MLOAD SWAP1 ISZERO ISZERO DUP2 MSTORE PUSH1 0x20 ADD PUSH2 0x155 JUMP JUMPDEST PUSH2 0x166 PUSH2 0x1C4 CALLDATASIZE PUSH1 0x4 PUSH2 0xCB6 JUMP JUMPDEST PUSH2 0x5D6 JUMP JUMPDEST PUSH2 0x166 PUSH2 0x6A1 JUMP JUMPDEST PUSH2 0x17B PUSH1 0x2 SLOAD DUP2 JUMP JUMPDEST PUSH2 0x166 PUSH2 0x6B3 JUMP JUMPDEST PUSH1 0x0 SLOAD PUSH1 0x1 PUSH1 0x1 PUSH1 0xA0 SHL SUB AND JUMPDEST PUSH1 0x40 MLOAD PUSH1 0x1 PUSH1 0x1 PUSH1 0xA0 SHL SUB SWAP1 SWAP2 AND DUP2 MSTORE PUSH1 0x20 ADD PUSH2 0x155 JUMP JUMPDEST PUSH2 0x166 PUSH2 0x215 CALLDATASIZE PUSH1 0x4 PUSH2 0xCB6 JUMP JUMPDEST PUSH2 0x6C3 JUMP JUMPDEST PUSH2 0x166 PUSH2 0x228 CALLDATASIZE PUSH1 0x4 PUSH2 0xCB6 JUMP JUMPDEST PUSH2 0x7E7 JUMP JUMPDEST PUSH2 0x17B PUSH1 0x3 SLOAD DUP2 JUMP JUMPDEST PUSH2 0x17B PUSH2 0x3E8 DUP2 JUMP JUMPDEST PUSH2 0x166 PUSH2 0x24D CALLDATASIZE PUSH1 0x4 PUSH2 0xC8D JUMP JUMPDEST PUSH2 0x8E5 JUMP JUMPDEST PUSH2 0x1EF PUSH32 0x0 DUP2 JUMP JUMPDEST PUSH2 0x281 PUSH2 0x920 JUMP JUMPDEST PUSH2 0x289 PUSH2 0x93C JUMP JUMPDEST CALLER PUSH1 0x0 SWAP1 DUP2 MSTORE PUSH1 0x1 PUSH1 0x20 MSTORE PUSH1 0x40 SWAP1 KECCAK256 DUP1 SLOAD PUSH2 0x2E5 JUMPI PUSH1 0x40 MLOAD PUSH3 0x461BCD PUSH1 0xE5 SHL DUP2 MSTORE PUSH1 0x20 PUSH1 0x4 DUP3 ADD MSTORE PUSH1 0x17 PUSH1 0x24 DUP3 ADD MSTORE PUSH23 0x14DD185ADA5B99CE881B9BDD1A1A5B99C81CDD185AD959 PUSH1 0x4A SHL PUSH1 0x44 DUP3 ADD MSTORE PUSH1 0x64 ADD JUMPDEST PUSH1 0x40 MLOAD DUP1 SWAP2 SUB SWAP1 REVERT JUMPDEST DUP1 SLOAD PUSH1 0x0 PUSH2 0x2F2 DUP4 PUSH2 0x967 JUMP JUMPDEST DUP4 PUSH1 0x2 ADD SLOAD PUSH2 0x301 SWAP2 SWAP1 PUSH2 0xCE5 JUMP JUMPDEST SWAP1 POP PUSH1 0x0 PUSH1 0x3 SLOAD DUP3 GT ISZERO PUSH2 0x317 JUMPI PUSH1 0x3 SLOAD PUSH2 0x319 JUMP JUMPDEST DUP2 JUMPDEST SWAP1 POP DUP3 PUSH1 0x2 PUSH1 0x0 DUP3 DUP3 SLOAD PUSH2 0x32D SWAP2 SWAP1 PUSH2 0xCFE JUMP JUMPDEST SWAP3 POP POP DUP2 SWAP1 SSTORE POP DUP1 PUSH1 0x3 PUSH1 0x0 DUP3 DUP3 SLOAD PUSH2 0x346 SWAP2 SWAP1 PUSH2 0xCFE JUMP JUMPDEST SWAP1 SWAP2 SSTORE POP POP CALLER PUSH1 0x0 DUP2 DUP2 MSTORE PUSH1 0x1 PUSH1 0x20 DUP2 SWAP1 MSTORE PUSH1 0x40 DUP3 KECCAK256 DUP3 DUP2 SSTORE SWAP1 DUP2 ADD DUP3 SWAP1 SSTORE PUSH1 0x2 ADD SSTORE PUSH2 0x3A8 SWAP1 PUSH2 0x377 DUP4 DUP7 PUSH2 0xCE5 JUMP JUMPDEST PUSH1 0x1 PUSH1 0x1 PUSH1 0xA0 SHL SUB PUSH32 0x0 AND SWAP2 SWAP1 PUSH2 0x9D0 JUMP JUMPDEST PUSH1 0x40 DUP1 MLOAD DUP5 DUP2 MSTORE PUSH1 0x20 DUP2 ADD DUP4 SWAP1 MSTORE CALLER SWAP2 PUSH32 0x7FC4727E062E336010F2C282598EF5F14FACB3DE68CF8195C2F23E1454B2B74E SWAP2 ADD PUSH1 0x40 MLOAD DUP1 SWAP2 SUB SWAP1 LOG2 POP POP POP POP PUSH2 0x3FE PUSH1 0x1 PUSH1 0x0 DUP1 MLOAD PUSH1 0x20 PUSH2 0xD79 DUP4 CODECOPY DUP2 MLOAD SWAP2 MSTORE SSTORE JUMP JUMPDEST JUMP JUMPDEST PUSH1 0x1 PUSH1 0x1 PUSH1 0xA0 SHL SUB DUP2 AND PUSH1 0x0 SWAP1 DUP2 MSTORE PUSH1 0x1 PUSH1 0x20 MSTORE PUSH1 0x40 DUP2 KECCAK256 PUSH2 0x421 DUP2 PUSH2 0x967 JUMP JUMPDEST DUP2 PUSH1 0x2 ADD SLOAD PUSH2 0x430 SWAP2 SWAP1 PUSH2 0xCE5 JUMP JUMPDEST SWAP4 SWAP3 POP POP POP JUMP JUMPDEST PUSH2 0x43F PUSH2 0x920 JUMP JUMPDEST PUSH2 0x447 PUSH2 0x93C JUMP JUMPDEST CALLER PUSH1 0x0 SWAP1 DUP2 MSTORE PUSH1 0x1 PUSH1 0x20 MSTORE PUSH1 0x40 SWAP1 KECCAK256 DUP1 SLOAD PUSH2 0x49E JUMPI PUSH1 0x40 MLOAD PUSH3 0x461BCD PUSH1 0xE5 SHL DUP2 MSTORE PUSH1 0x20 PUSH1 0x4 DUP3 ADD MSTORE PUSH1 0x17 PUSH1 0x24 DUP3 ADD MSTORE PUSH23 0x14DD185ADA5B99CE881B9BDD1A1A5B99C81CDD185AD959 PUSH1 0x4A SHL PUSH1 0x44 DUP3 ADD MSTORE PUSH1 0x64 ADD PUSH2 0x2DC JUMP JUMPDEST PUSH1 0x0 PUSH2 0x4A9 DUP3 PUSH2 0x967 JUMP JUMPDEST DUP3 PUSH1 0x2 ADD SLOAD PUSH2 0x4B8 SWAP2 SWAP1 PUSH2 0xCE5 JUMP JUMPDEST SWAP1 POP PUSH1 0x0 DUP2 GT PUSH2 0x500 JUMPI PUSH1 0x40 MLOAD PUSH3 0x461BCD PUSH1 0xE5 SHL DUP2 MSTORE PUSH1 0x20 PUSH1 0x4 DUP3 ADD MSTORE PUSH1 0x13 PUSH1 0x24 DUP3 ADD MSTORE PUSH19 0x5374616B696E673A206E6F2072657761726473 PUSH1 0x68 SHL PUSH1 0x44 DUP3 ADD MSTORE PUSH1 0x64 ADD PUSH2 0x2DC JUMP JUMPDEST PUSH1 0x0 PUSH1 0x3 SLOAD DUP3 GT ISZERO PUSH2 0x514 JUMPI PUSH1 0x3 SLOAD PUSH2 0x516 JUMP JUMPDEST DUP2 JUMPDEST SWAP1 POP PUSH1 0x0 DUP4 PUSH1 0x2 ADD DUP2 SWAP1 SSTORE POP TIMESTAMP DUP4 PUSH1 0x1 ADD DUP2 SWAP1 SSTORE POP DUP1 PUSH1 0x3 PUSH1 0x0 DUP3 DUP3 SLOAD PUSH2 0x53D SWAP2 SWAP1 PUSH2 0xCFE JUMP JUMPDEST SWAP1 SWAP2 SSTORE POP PUSH2 0x577 SWAP1 POP PUSH1 0x1 PUSH1 0x1 PUSH1 0xA0 SHL SUB PUSH32 0x0 AND CALLER DUP4 PUSH2 0x9D0 JUMP JUMPDEST PUSH1 0x40 MLOAD DUP2 DUP2 MSTORE CALLER SWAP1 PUSH32 0x106F923F993C2149D49B4255FF723ACAFA1F2D94393F561D3EDA32AE348F7241 SWAP1 PUSH1 0x20 ADD PUSH1 0x40 MLOAD DUP1 SWAP2 SUB SWAP1 LOG2 POP POP POP PUSH2 0x3FE PUSH1 0x1 PUSH1 0x0 DUP1 MLOAD PUSH1 0x20 PUSH2 0xD79 DUP4 CODECOPY DUP2 MLOAD SWAP2 MSTORE SSTORE JUMP JUMPDEST PUSH2 0x5CE PUSH2 0xA0A JUMP JUMPDEST PUSH2 0x3FE PUSH2 0xA37 JUMP JUMPDEST PUSH2 0x5DE PUSH2 0xA0A JUMP JUMPDEST PUSH2 0x5E6 PUSH2 0x920 JUMP JUMPDEST PUSH1 0x0 DUP2 GT PUSH2 0x606 JUMPI PUSH1 0x40 MLOAD PUSH3 0x461BCD PUSH1 0xE5 SHL DUP2 MSTORE PUSH1 0x4 ADD PUSH2 0x2DC SWAP1 PUSH2 0xD11 JUMP JUMPDEST DUP1 PUSH1 0x3 PUSH1 0x0 DUP3 DUP3 SLOAD PUSH2 0x618 SWAP2 SWAP1 PUSH2 0xCE5 JUMP JUMPDEST SWAP1 SWAP2 SSTORE POP PUSH2 0x653 SWAP1 POP PUSH1 0x1 PUSH1 0x1 PUSH1 0xA0 SHL SUB PUSH32 0x0 AND CALLER ADDRESS DUP5 PUSH2 0xA8C JUMP JUMPDEST PUSH1 0x40 MLOAD DUP2 DUP2 MSTORE PUSH32 0xEEEF56731F4E2991DCE0759D708EEDA6E79D324F19E640A656C54ABC4CFF924D SWAP1 PUSH1 0x20 ADD JUMPDEST PUSH1 0x40 MLOAD DUP1 SWAP2 SUB SWAP1 LOG1 PUSH2 0x69E PUSH1 0x1 PUSH1 0x0 DUP1 MLOAD PUSH1 0x20 PUSH2 0xD79 DUP4 CODECOPY DUP2 MLOAD SWAP2 MSTORE SSTORE JUMP JUMPDEST POP JUMP JUMPDEST PUSH2 0x6A9 PUSH2 0xA0A JUMP JUMPDEST PUSH2 0x3FE PUSH1 0x0 PUSH2 0xAC8 JUMP JUMPDEST PUSH2 0x6BB PUSH2 0xA0A JUMP JUMPDEST PUSH2 0x3FE PUSH2 0xB18 JUMP JUMPDEST PUSH2 0x6CB PUSH2 0x920 JUMP JUMPDEST PUSH2 0x6D3 PUSH2 0x93C JUMP JUMPDEST PUSH1 0x0 DUP2 GT PUSH2 0x6F3 JUMPI PUSH1 0x40 MLOAD PUSH3 0x461BCD PUSH1 0xE5 SHL DUP2 MSTORE PUSH1 0x4 ADD PUSH2 0x2DC SWAP1 PUSH2 0xD11 JUMP JUMPDEST CALLER PUSH1 0x0 SWAP1 DUP2 MSTORE PUSH1 0x1 PUSH1 0x20 MSTORE PUSH1 0x40 SWAP1 KECCAK256 DUP1 SLOAD ISZERO PUSH2 0x72B JUMPI PUSH2 0x712 DUP2 PUSH2 0x967 JUMP JUMPDEST DUP2 PUSH1 0x2 ADD PUSH1 0x0 DUP3 DUP3 SLOAD PUSH2 0x725 SWAP2 SWAP1 PUSH2 0xCE5 JUMP JUMPDEST SWAP1 SWAP2 SSTORE POP POP JUMPDEST DUP2 DUP2 PUSH1 0x0 ADD PUSH1 0x0 DUP3 DUP3 SLOAD PUSH2 0x73F SWAP2 SWAP1 PUSH2 0xCE5 JUMP JUMPDEST SWAP1 SWAP2 SSTORE POP POP TIMESTAMP PUSH1 0x1 DUP3 ADD SSTORE PUSH1 0x2 DUP1 SLOAD DUP4 SWAP2 SWAP1 PUSH1 0x0 SWAP1 PUSH2 0x75F SWAP1 DUP5 SWAP1 PUSH2 0xCE5 JUMP JUMPDEST SWAP1 SWAP2 SSTORE POP PUSH2 0x79A SWAP1 POP PUSH1 0x1 PUSH1 0x1 PUSH1 0xA0 SHL SUB PUSH32 0x0 AND CALLER ADDRESS DUP6 PUSH2 0xA8C JUMP JUMPDEST PUSH1 0x40 MLOAD DUP3 DUP2 MSTORE CALLER SWAP1 PUSH32 0x9E71BC8EEA02A63969F509818F2DAFB9254532904319F9DBDA79B67BD34A5F3D SWAP1 PUSH1 0x20 ADD PUSH1 0x40 MLOAD DUP1 SWAP2 SUB SWAP1 LOG2 POP PUSH2 0x69E PUSH1 0x1 PUSH1 0x0 DUP1 MLOAD PUSH1 0x20 PUSH2 0xD79 DUP4 CODECOPY DUP2 MLOAD SWAP2 MSTORE SSTORE JUMP JUMPDEST PUSH2 0x7EF PUSH2 0xA0A JUMP JUMPDEST PUSH2 0x7F7 PUSH2 0x920 JUMP JUMPDEST PUSH1 0x0 DUP2 GT PUSH2 0x817 JUMPI PUSH1 0x40 MLOAD PUSH3 0x461BCD PUSH1 0xE5 SHL DUP2 MSTORE PUSH1 0x4 ADD PUSH2 0x2DC SWAP1 PUSH2 0xD11 JUMP JUMPDEST PUSH1 0x3 SLOAD DUP2 GT ISZERO PUSH2 0x869 JUMPI PUSH1 0x40 MLOAD PUSH3 0x461BCD PUSH1 0xE5 SHL DUP2 MSTORE PUSH1 0x20 PUSH1 0x4 DUP3 ADD MSTORE PUSH1 0x18 PUSH1 0x24 DUP3 ADD MSTORE PUSH32 0x5374616B696E673A206578636565647320726573657276650000000000000000 PUSH1 0x44 DUP3 ADD MSTORE PUSH1 0x64 ADD PUSH2 0x2DC JUMP JUMPDEST DUP1 PUSH1 0x3 PUSH1 0x0 DUP3 DUP3 SLOAD PUSH2 0x87B SWAP2 SWAP1 PUSH2 0xCFE JUMP JUMPDEST SWAP1 SWAP2 SSTORE POP PUSH2 0x8B5 SWAP1 POP PUSH1 0x1 PUSH1 0x1 PUSH1 0xA0 SHL SUB PUSH32 0x0 AND CALLER DUP4 PUSH2 0x9D0 JUMP JUMPDEST PUSH1 0x40 MLOAD DUP2 DUP2 MSTORE PUSH32 0x8378C3E80C87D1D376A368873944FB0F3686ED90417DAC7E3E1916F3853C7DC7 SWAP1 PUSH1 0x20 ADD PUSH2 0x67F JUMP JUMPDEST PUSH2 0x8ED PUSH2 0xA0A JUMP JUMPDEST PUSH1 0x1 PUSH1 0x1 PUSH1 0xA0 SHL SUB DUP2 AND PUSH2 0x917 JUMPI PUSH1 0x40 MLOAD PUSH4 0x1E4FBDF7 PUSH1 0xE0 SHL DUP2 MSTORE PUSH1 0x0 PUSH1 0x4 DUP3 ADD MSTORE PUSH1 0x24 ADD PUSH2 0x2DC JUMP JUMPDEST PUSH2 0x69E DUP2 PUSH2 0xAC8 JUMP JUMPDEST PUSH2 0x928 PUSH2 0xB5B JUMP JUMPDEST PUSH1 0x2 PUSH1 0x0 DUP1 MLOAD PUSH1 0x20 PUSH2 0xD79 DUP4 CODECOPY DUP2 MLOAD SWAP2 MSTORE SSTORE JUMP JUMPDEST PUSH1 0x0 SLOAD PUSH1 0x1 PUSH1 0xA0 SHL SWAP1 DIV PUSH1 0xFF AND ISZERO PUSH2 0x3FE JUMPI PUSH1 0x40 MLOAD PUSH4 0xD93C0665 PUSH1 0xE0 SHL DUP2 MSTORE PUSH1 0x4 ADD PUSH1 0x40 MLOAD DUP1 SWAP2 SUB SWAP1 REVERT JUMPDEST DUP1 SLOAD PUSH1 0x0 SWAP1 ISZERO DUP1 PUSH2 0x97A JUMPI POP PUSH1 0x1 DUP3 ADD SLOAD ISZERO JUMPDEST ISZERO PUSH2 0x987 JUMPI POP PUSH1 0x0 SWAP2 SWAP1 POP JUMP JUMPDEST PUSH1 0x0 DUP3 PUSH1 0x1 ADD SLOAD TIMESTAMP PUSH2 0x999 SWAP2 SWAP1 PUSH2 0xCFE JUMP JUMPDEST SWAP1 POP PUSH2 0x9AB PUSH4 0x1E13380 PUSH2 0x2710 PUSH2 0xD3F JUMP JUMPDEST DUP4 SLOAD DUP3 SWAP1 PUSH2 0x9BC SWAP1 PUSH2 0x3E8 SWAP1 PUSH2 0xD3F JUMP JUMPDEST PUSH2 0x9C6 SWAP2 SWAP1 PUSH2 0xD3F JUMP JUMPDEST PUSH2 0x430 SWAP2 SWAP1 PUSH2 0xD56 JUMP JUMPDEST PUSH2 0x9DD DUP4 DUP4 DUP4 PUSH1 0x1 PUSH2 0xB8B JUMP JUMPDEST PUSH2 0xA05 JUMPI PUSH1 0x40 MLOAD PUSH4 0x5274AFE7 PUSH1 0xE0 SHL DUP2 MSTORE PUSH1 0x1 PUSH1 0x1 PUSH1 0xA0 SHL SUB DUP5 AND PUSH1 0x4 DUP3 ADD MSTORE PUSH1 0x24 ADD PUSH2 0x2DC JUMP JUMPDEST POP POP POP JUMP JUMPDEST PUSH1 0x0 SLOAD PUSH1 0x1 PUSH1 0x1 PUSH1 0xA0 SHL SUB AND CALLER EQ PUSH2 0x3FE JUMPI PUSH1 0x40 MLOAD PUSH4 0x118CDAA7 PUSH1 0xE0 SHL DUP2 MSTORE CALLER PUSH1 0x4 DUP3 ADD MSTORE PUSH1 0x24 ADD PUSH2 0x2DC JUMP JUMPDEST PUSH2 0xA3F PUSH2 0xBF1 JUMP JUMPDEST PUSH1 0x0 DUP1 SLOAD PUSH1 0xFF PUSH1 0xA0 SHL NOT AND SWAP1 SSTORE PUSH32 0x5DB9EE0A495BF2E6FF9C91A7834C1BA4FDD244A5E8AA4E537BD38AEAE4B073AA CALLER JUMPDEST PUSH1 0x40 MLOAD PUSH1 0x1 PUSH1 0x1 PUSH1 0xA0 SHL SUB SWAP1 SWAP2 AND DUP2 MSTORE PUSH1 0x20 ADD PUSH1 0x40 MLOAD DUP1 SWAP2 SUB SWAP1 LOG1 JUMP JUMPDEST PUSH2 0xA9A DUP5 DUP5 DUP5 DUP5 PUSH1 0x1 PUSH2 0xC1B JUMP JUMPDEST PUSH2 0xAC2 JUMPI PUSH1 0x40 MLOAD PUSH4 0x5274AFE7 PUSH1 0xE0 SHL DUP2 MSTORE PUSH1 0x1 PUSH1 0x1 PUSH1 0xA0 SHL SUB DUP6 AND PUSH1 0x4 DUP3 ADD MSTORE PUSH1 0x24 ADD PUSH2 0x2DC JUMP JUMPDEST POP POP POP POP JUMP JUMPDEST PUSH1 0x0 DUP1 SLOAD PUSH1 0x1 PUSH1 0x1 PUSH1 0xA0 SHL SUB DUP4 DUP2 AND PUSH1 0x1 PUSH1 0x1 PUSH1 0xA0 SHL SUB NOT DUP4 AND DUP2 OR DUP5 SSTORE PUSH1 0x40 MLOAD SWAP2 SWAP1 SWAP3 AND SWAP3 DUP4 SWAP2 PUSH32 0x8BE0079C531659141344CD1FD0A4F28419497F9722A3DAAFE3B4186F6B6457E0 SWAP2 SWAP1 LOG3 POP POP JUMP JUMPDEST PUSH2 0xB20 PUSH2 0x93C JUMP JUMPDEST PUSH1 0x0 DUP1 SLOAD PUSH1 0xFF PUSH1 0xA0 SHL NOT AND PUSH1 0x1 PUSH1 0xA0 SHL OR SWAP1 SSTORE PUSH32 0x62E78CEA01BEE320CD4E420270B5EA74000D11B0C9F74754EBDBFC544B05A258 PUSH2 0xA6F CALLER SWAP1 JUMP JUMPDEST PUSH1 0x0 DUP1 MLOAD PUSH1 0x20 PUSH2 0xD79 DUP4 CODECOPY DUP2 MLOAD SWAP2 MSTORE SLOAD PUSH1 0x2 SUB PUSH2 0x3FE JUMPI PUSH1 0x40 MLOAD PUSH4 0x3EE5AEB5 PUSH1 0xE0 SHL DUP2 MSTORE PUSH1 0x4 ADD PUSH1 0x40 MLOAD DUP1 SWAP2 SUB SWAP1 REVERT JUMPDEST PUSH1 0x40 MLOAD PUSH4 0xA9059CBB PUSH1 0xE0 SHL PUSH1 0x0 DUP2 DUP2 MSTORE PUSH1 0x1 PUSH1 0x1 PUSH1 0xA0 SHL SUB DUP7 AND PUSH1 0x4 MSTORE PUSH1 0x24 DUP6 SWAP1 MSTORE SWAP2 PUSH1 0x20 DUP4 PUSH1 0x44 DUP2 DUP1 DUP12 GAS CALL SWAP3 POP PUSH1 0x1 PUSH1 0x0 MLOAD EQ DUP4 AND PUSH2 0xBE5 JUMPI DUP4 DUP4 ISZERO AND ISZERO PUSH2 0xBD8 JUMPI RETURNDATASIZE PUSH1 0x0 DUP3 RETURNDATACOPY RETURNDATASIZE DUP2 REVERT JUMPDEST PUSH1 0x0 DUP8 EXTCODESIZE GT RETURNDATASIZE ISZERO AND DUP4 AND SWAP3 POP JUMPDEST PUSH1 0x40 MSTORE POP SWAP5 SWAP4 POP POP POP POP JUMP JUMPDEST PUSH1 0x0 SLOAD PUSH1 0x1 PUSH1 0xA0 SHL SWAP1 DIV PUSH1 0xFF AND PUSH2 0x3FE JUMPI PUSH1 0x40 MLOAD PUSH4 0x8DFC202B PUSH1 0xE0 SHL DUP2 MSTORE PUSH1 0x4 ADD PUSH1 0x40 MLOAD DUP1 SWAP2 SUB SWAP1 REVERT JUMPDEST PUSH1 0x40 MLOAD PUSH4 0x23B872DD PUSH1 0xE0 SHL PUSH1 0x0 DUP2 DUP2 MSTORE PUSH1 0x1 PUSH1 0x1 PUSH1 0xA0 SHL SUB DUP8 DUP2 AND PUSH1 0x4 MSTORE DUP7 AND PUSH1 0x24 MSTORE PUSH1 0x44 DUP6 SWAP1 MSTORE SWAP2 PUSH1 0x20 DUP4 PUSH1 0x64 DUP2 DUP1 DUP13 GAS CALL SWAP3 POP PUSH1 0x1 PUSH1 0x0 MLOAD EQ DUP4 AND PUSH2 0xC7B JUMPI DUP4 DUP4 ISZERO AND ISZERO PUSH2 0xC6E JUMPI RETURNDATASIZE PUSH1 0x0 DUP3 RETURNDATACOPY RETURNDATASIZE DUP2 REVERT JUMPDEST PUSH1 0x0 DUP9 EXTCODESIZE GT RETURNDATASIZE ISZERO AND DUP4 AND SWAP3 POP JUMPDEST PUSH1 0x40 MSTORE POP PUSH1 0x0 PUSH1 0x60 MSTORE SWAP6 SWAP5 POP POP POP POP POP JUMP JUMPDEST PUSH1 0x0 PUSH1 0x20 DUP3 DUP5 SUB SLT ISZERO PUSH2 0xC9F JUMPI PUSH1 0x0 DUP1 REVERT JUMPDEST DUP2 CALLDATALOAD PUSH1 0x1 PUSH1 0x1 PUSH1 0xA0 SHL SUB DUP2 AND DUP2 EQ PUSH2 0x430 JUMPI PUSH1 0x0 DUP1 REVERT JUMPDEST PUSH1 0x0 PUSH1 0x20 DUP3 DUP5 SUB SLT ISZERO PUSH2 0xCC8 JUMPI PUSH1 0x0 DUP1 REVERT JUMPDEST POP CALLDATALOAD SWAP2 SWAP1 POP JUMP JUMPDEST PUSH4 0x4E487B71 PUSH1 0xE0 SHL PUSH1 0x0 MSTORE PUSH1 0x11 PUSH1 0x4 MSTORE PUSH1 0x24 PUSH1 0x0 REVERT JUMPDEST DUP1 DUP3 ADD DUP1 DUP3 GT ISZERO PUSH2 0xCF8 JUMPI PUSH2 0xCF8 PUSH2 0xCCF JUMP JUMPDEST SWAP3 SWAP2 POP POP JUMP JUMPDEST DUP2 DUP2 SUB DUP2 DUP2 GT ISZERO PUSH2 0xCF8 JUMPI PUSH2 0xCF8 PUSH2 0xCCF JUMP JUMPDEST PUSH1 0x20 DUP1 DUP3 MSTORE PUSH1 0x14 SWAP1 DUP3 ADD MSTORE PUSH20 0x14DD185ADA5B99CE881E995C9BC8185B5BDD5B9D PUSH1 0x62 SHL PUSH1 0x40 DUP3 ADD MSTORE PUSH1 0x60 ADD SWAP1 JUMP JUMPDEST DUP1 DUP3 MUL DUP2 ISZERO DUP3 DUP3 DIV DUP5 EQ OR PUSH2 0xCF8 JUMPI PUSH2 0xCF8 PUSH2 0xCCF JUMP JUMPDEST PUSH1 0x0 DUP3 PUSH2 0xD73 JUMPI PUSH4 0x4E487B71 PUSH1 0xE0 SHL PUSH1 0x0 MSTORE PUSH1 0x12 PUSH1 0x4 MSTORE PUSH1 0x24 PUSH1 0x0 REVERT JUMPDEST POP DIV SWAP1 JUMP INVALID SWAP12 PUSH24 0x9B17422D0DF92223018B32B4D1FA46E071723D6817E2486D STOP EXTCODESIZE 0xEC 0xC5 PUSH0 STOP LOG2 PUSH5 0x6970667358 0x22 SLT KECCAK256 SWAP13 PUSH5 0xECE7E344FA BASEFEE 0xED BLOBBASEFEE SWAP15 JUMP 0xD1 PUSH21 0x1D8C8D885FA72C83ABBEAD8E1E1C8FEF8BC764736F PUSH13 0x63430008180033000000000000 "},"methodIdentifiers":{"APY_BPS()":"e3363d4e","claimRewards()":"372500ab","depositRewardReserve(uint256)":"6eb5adbe","owner()":"8da5cb5b","pause()":"8456cb59","paused()":"5c975abb","pendingRewards(address)":"31d7a262","renounceOwnership()":"715018a6","rewardReserve()":"cab64bcd","stake(uint256)":"a694fc3a","stakes(address)":"16934fc4","token()":"fc0c546a","totalStaked()":"817b1cd2","transferOwnership(address)":"f2fde38b","unpause()":"3f4ba83a","unstake()":"2def6620","withdrawRewardReserve(uint256)":"c3825c2a"}}}}}